{
  "_format": "hh-sol-artifact-1",
  "contractName": "VehicleMaintenance",
  "sourceName": "contracts/CarMaintenanceContract.sol",
  "abi": [
    {
      "inputs": [
        {
          "internalType": "address",
          "name": "_dealer",
          "type": "address"
        },
        {
          "internalType": "address",
          "name": "_client",
          "type": "address"
        },
        {
          "internalType": "address",
          "name": "_mechanic",
          "type": "address"
        },
        {
          "internalType": "address",
          "name": "_insurer",
          "type": "address"
        },
        {
          "internalType": "address",
          "name": "_prefecture",
          "type": "address"
        },
        {
          "internalType": "address",
          "name": "_police",
          "type": "address"
        }
      ],
      "stateMutability": "nonpayable",
      "type": "constructor"
    },
    {
      "anonymous": false,
      "inputs": [
        {
          "indexed": true,
          "internalType": "address",
          "name": "owner",
          "type": "address"
        },
        {
          "indexed": false,
          "internalType": "string",
          "name": "licensePlate",
          "type": "string"
        },
        {
          "indexed": false,
          "internalType": "uint256",
          "name": "timestamp",
          "type": "uint256"
        }
      ],
      "name": "IssueReported",
      "type": "event"
    },
    {
      "anonymous": false,
      "inputs": [
        {
          "indexed": true,
          "internalType": "address",
          "name": "owner",
          "type": "address"
        },
        {
          "indexed": false,
          "internalType": "string",
          "name": "licensePlate",
          "type": "string"
        },
        {
          "indexed": false,
          "internalType": "uint256",
          "name": "timestamp",
          "type": "uint256"
        }
      ],
      "name": "PreventiveMaintenanceRequested",
      "type": "event"
    },
    {
      "anonymous": false,
      "inputs": [
        {
          "indexed": true,
          "internalType": "address",
          "name": "owner",
          "type": "address"
        },
        {
          "indexed": false,
          "internalType": "string",
          "name": "licensePlate",
          "type": "string"
        },
        {
          "indexed": false,
          "internalType": "uint256",
          "name": "timestamp",
          "type": "uint256"
        }
      ],
      "name": "RepairValidated",
      "type": "event"
    },
    {
      "anonymous": false,
      "inputs": [
        {
          "indexed": true,
          "internalType": "address",
          "name": "owner",
          "type": "address"
        },
        {
          "indexed": false,
          "internalType": "string",
          "name": "licensePlate",
          "type": "string"
        },
        {
          "indexed": false,
          "internalType": "uint256",
          "name": "timestamp",
          "type": "uint256"
        }
      ],
      "name": "VehicleDisposed",
      "type": "event"
    },
    {
      "anonymous": false,
      "inputs": [
        {
          "indexed": true,
          "internalType": "address",
          "name": "owner",
          "type": "address"
        },
        {
          "indexed": false,
          "internalType": "string",
          "name": "licensePlate",
          "type": "string"
        },
        {
          "indexed": false,
          "internalType": "uint256",
          "name": "timestamp",
          "type": "uint256"
        }
      ],
      "name": "VehicleRegistered",
      "type": "event"
    },
    {
      "inputs": [
        {
          "internalType": "string",
          "name": "_licensePlate",
          "type": "string"
        }
      ],
      "name": "accessDataForInsurance",
      "outputs": [],
      "stateMutability": "view",
      "type": "function"
    },
    {
      "inputs": [
        {
          "internalType": "string",
          "name": "_licensePlate",
          "type": "string"
        }
      ],
      "name": "accessDataForPoliceInvestigation",
      "outputs": [
        {
          "internalType": "uint256",
          "name": "",
          "type": "uint256"
        },
        {
          "internalType": "uint256",
          "name": "",
          "type": "uint256"
        }
      ],
      "stateMutability": "view",
      "type": "function"
    },
    {
      "inputs": [
        {
          "internalType": "string",
          "name": "_licensePlate",
          "type": "string"
        }
      ],
      "name": "accessDataForRegistration",
      "outputs": [
        {
          "internalType": "bool",
          "name": "",
          "type": "bool"
        }
      ],
      "stateMutability": "view",
      "type": "function"
    },
    {
      "inputs": [
        {
          "internalType": "string",
          "name": "_licensePlate",
          "type": "string"
        }
      ],
      "name": "accessMaintenanceHistory",
      "outputs": [
        {
          "internalType": "uint256",
          "name": "",
          "type": "uint256"
        },
        {
          "internalType": "uint256",
          "name": "",
          "type": "uint256"
        }
      ],
      "stateMutability": "view",
      "type": "function"
    },
    {
      "inputs": [
        {
          "internalType": "string",
          "name": "_licensePlate",
          "type": "string"
        }
      ],
      "name": "assessVehicleValueForResale",
      "outputs": [
        {
          "internalType": "bool",
          "name": "",
          "type": "bool"
        }
      ],
      "stateMutability": "view",
      "type": "function"
    },
    {
      "inputs": [],
      "name": "client",
      "outputs": [
        {
          "internalType": "address",
          "name": "",
          "type": "address"
        }
      ],
      "stateMutability": "view",
      "type": "function"
    },
    {
      "inputs": [],
      "name": "dealer",
      "outputs": [
        {
          "internalType": "address",
          "name": "",
          "type": "address"
        }
      ],
      "stateMutability": "view",
      "type": "function"
    },
    {
      "inputs": [],
      "name": "insurer",
      "outputs": [
        {
          "internalType": "address",
          "name": "",
          "type": "address"
        }
      ],
      "stateMutability": "view",
      "type": "function"
    },
    {
      "inputs": [],
      "name": "manufacturer",
      "outputs": [
        {
          "internalType": "address",
          "name": "",
          "type": "address"
        }
      ],
      "stateMutability": "view",
      "type": "function"
    },
    {
      "inputs": [],
      "name": "mechanic",
      "outputs": [
        {
          "internalType": "address",
          "name": "",
          "type": "address"
        }
      ],
      "stateMutability": "view",
      "type": "function"
    },
    {
      "inputs": [
        {
          "internalType": "string",
          "name": "",
          "type": "string"
        }
      ],
      "name": "ownerByLicensePlate",
      "outputs": [
        {
          "internalType": "address",
          "name": "",
          "type": "address"
        }
      ],
      "stateMutability": "view",
      "type": "function"
    },
    {
      "inputs": [],
      "name": "police",
      "outputs": [
        {
          "internalType": "address",
          "name": "",
          "type": "address"
        }
      ],
      "stateMutability": "view",
      "type": "function"
    },
    {
      "inputs": [],
      "name": "prefecture",
      "outputs": [
        {
          "internalType": "address",
          "name": "",
          "type": "address"
        }
      ],
      "stateMutability": "view",
      "type": "function"
    },
    {
      "inputs": [
        {
          "internalType": "address",
          "name": "_vehicleOwner",
          "type": "address"
        },
        {
          "internalType": "string",
          "name": "_licensePlate",
          "type": "string"
        }
      ],
      "name": "registerVehicle",
      "outputs": [],
      "stateMutability": "nonpayable",
      "type": "function"
    },
    {
      "inputs": [
        {
          "internalType": "string",
          "name": "_licensePlate",
          "type": "string"
        }
      ],
      "name": "reportIssue",
      "outputs": [],
      "stateMutability": "nonpayable",
      "type": "function"
    },
    {
      "inputs": [
        {
          "internalType": "string",
          "name": "_licensePlate",
          "type": "string"
        }
      ],
      "name": "reportVehicleDisposal",
      "outputs": [],
      "stateMutability": "nonpayable",
      "type": "function"
    },
    {
      "inputs": [
        {
          "internalType": "string",
          "name": "_licensePlate",
          "type": "string"
        }
      ],
      "name": "requestPreventiveMaintenance",
      "outputs": [],
      "stateMutability": "nonpayable",
      "type": "function"
    },
    {
      "inputs": [
        {
          "internalType": "address",
          "name": "_oldVehicleOwner",
          "type": "address"
        },
        {
          "internalType": "address",
          "name": "_newOwner",
          "type": "address"
        },
        {
          "internalType": "string",
          "name": "_newLicensePlate",
          "type": "string"
        }
      ],
      "name": "transferVehicleOwnership",
      "outputs": [],
      "stateMutability": "nonpayable",
      "type": "function"
    },
    {
      "inputs": [
        {
          "internalType": "string",
          "name": "_licensePlate",
          "type": "string"
        }
      ],
      "name": "validateRepair",
      "outputs": [],
      "stateMutability": "nonpayable",
      "type": "function"
    },
    {
      "inputs": [
        {
          "internalType": "address",
          "name": "",
          "type": "address"
        }
      ],
      "name": "vehiclesByOwner",
      "outputs": [
        {
          "internalType": "address",
          "name": "owner",
          "type": "address"
        },
        {
          "internalType": "bool",
          "name": "isRegistered",
          "type": "bool"
        },
        {
          "internalType": "uint256",
          "name": "lastServiceTimestamp",
          "type": "uint256"
        },
        {
          "internalType": "uint256",
          "name": "lastRepairTimestamp",
          "type": "uint256"
        },
        {
          "internalType": "bool",
          "name": "isDisposed",
          "type": "bool"
        },
        {
          "internalType": "string",
          "name": "licensePlate",
          "type": "string"
        }
      ],
      "stateMutability": "view",
      "type": "function"
    }
  ],
  "bytecode": "0x60806040523480156200001157600080fd5b506040516200306c3803806200306c833981810160405281019062000037919062000273565b336000806101000a81548173ffffffffffffffffffffffffffffffffffffffff021916908373ffffffffffffffffffffffffffffffffffffffff16021790555085600160006101000a81548173ffffffffffffffffffffffffffffffffffffffff021916908373ffffffffffffffffffffffffffffffffffffffff16021790555084600260006101000a81548173ffffffffffffffffffffffffffffffffffffffff021916908373ffffffffffffffffffffffffffffffffffffffff16021790555083600360006101000a81548173ffffffffffffffffffffffffffffffffffffffff021916908373ffffffffffffffffffffffffffffffffffffffff16021790555082600460006101000a81548173ffffffffffffffffffffffffffffffffffffffff021916908373ffffffffffffffffffffffffffffffffffffffff16021790555081600560006101000a81548173ffffffffffffffffffffffffffffffffffffffff021916908373ffffffffffffffffffffffffffffffffffffffff16021790555080600660006101000a81548173ffffffffffffffffffffffffffffffffffffffff021916908373ffffffffffffffffffffffffffffffffffffffff1602179055505050505050506200030f565b600080fd5b600073ffffffffffffffffffffffffffffffffffffffff82169050919050565b60006200023b826200020e565b9050919050565b6200024d816200022e565b81146200025957600080fd5b50565b6000815190506200026d8162000242565b92915050565b60008060008060008060c0878903121562000293576200029262000209565b5b6000620002a389828a016200025c565b9650506020620002b689828a016200025c565b9550506040620002c989828a016200025c565b9450506060620002dc89828a016200025c565b9350506080620002ef89828a016200025c565b92505060a06200030289828a016200025c565b9150509295509295509295565b612d4d806200031f6000396000f3fe608060405234801561001057600080fd5b506004361061012c5760003560e01c8063a82472f0116100ad578063c7330dd411610071578063c7330dd414610334578063dbc837c514610352578063e22e8e6914610370578063e7b219ff1461038e578063ff7d8e28146103be5761012c565b8063a82472f014610292578063b880ff24146102c2578063b9523851146102de578063bc81099f146102fa578063c549beec146103165761012c565b806333d29fc6116100f457806333d29fc6146101ed57806363b5f64b1461020957806374754282146102255780637e24261d146102435780639de2ee21146102745761012c565b8063035eb38e146101315780630bb77c7914610166578063109e94cf1461018257806316a794f7146101a057806331e2bbdb146101d1575b600080fd5b61014b60048036038101906101469190611fac565b6103ee565b60405161015d969594939291906120ac565b60405180910390f35b610180600480360381019061017b9190612249565b6104ec565b005b61018a6106e9565b6040516101979190612292565b60405180910390f35b6101ba60048036038101906101b59190612249565b61070f565b6040516101c89291906122ad565b60405180910390f35b6101eb60048036038101906101e69190612249565b610904565b005b610207600480360381019061020291906122d6565b610b01565b005b610223600480360381019061021e9190612249565b61106c565b005b61022d61127d565b60405161023a9190612292565b60405180910390f35b61025d60048036038101906102589190612249565b6112a1565b60405161026b9291906122ad565b60405180910390f35b61027c611406565b6040516102899190612292565b60405180910390f35b6102ac60048036038101906102a79190612249565b61142c565b6040516102b99190612292565b60405180910390f35b6102dc60048036038101906102d79190612249565b611475565b005b6102f860048036038101906102f39190612345565b611672565b005b610314600480360381019061030f9190612249565b61199c565b005b61031e611b02565b60405161032b9190612292565b60405180910390f35b61033c611b28565b6040516103499190612292565b60405180910390f35b61035a611b4e565b6040516103679190612292565b60405180910390f35b610378611b74565b6040516103859190612292565b60405180910390f35b6103a860048036038101906103a39190612249565b611b9a565b6040516103b591906123a1565b60405180910390f35b6103d860048036038101906103d39190612249565b611d57565b6040516103e591906123a1565b60405180910390f35b60076020528060005260406000206000915090508060000160009054906101000a900473ffffffffffffffffffffffffffffffffffffffff16908060000160149054906101000a900460ff16908060010154908060020154908060030160009054906101000a900460ff1690806004018054610469906123eb565b80601f0160208091040260200160405190810160405280929190818152602001828054610495906123eb565b80156104e25780601f106104b7576101008083540402835291602001916104e2565b820191906000526020600020905b8154815290600101906020018083116104c557829003601f168201915b5050505050905086565b600260009054906101000a900473ffffffffffffffffffffffffffffffffffffffff1673ffffffffffffffffffffffffffffffffffffffff163373ffffffffffffffffffffffffffffffffffffffff161461057c576040517f08c379a00000000000000000000000000000000000000000000000000000000081526004016105739061248e565b60405180910390fd5b600060088260405161058e91906124ea565b908152602001604051809103902060009054906101000a900473ffffffffffffffffffffffffffffffffffffffff169050600760008273ffffffffffffffffffffffffffffffffffffffff1673ffffffffffffffffffffffffffffffffffffffff16815260200190815260200160002060000160149054906101000a900460ff1661064e576040517f08c379a00000000000000000000000000000000000000000000000000000000081526004016106459061254d565b60405180910390fd5b8073ffffffffffffffffffffffffffffffffffffffff167fe4584c74bcc8ffff59184dce78bdf58cc10866564383869b32ec225373c98069834260405161069692919061256d565b60405180910390a242600760008373ffffffffffffffffffffffffffffffffffffffff1673ffffffffffffffffffffffffffffffffffffffff168152602001908152602001600020600101819055505050565b600260009054906101000a900473ffffffffffffffffffffffffffffffffffffffff1681565b600080600660009054906101000a900473ffffffffffffffffffffffffffffffffffffffff1673ffffffffffffffffffffffffffffffffffffffff163373ffffffffffffffffffffffffffffffffffffffff16146107a2576040517f08c379a00000000000000000000000000000000000000000000000000000000081526004016107999061260f565b60405180910390fd5b60006008846040516107b491906124ea565b908152602001604051809103902060009054906101000a900473ffffffffffffffffffffffffffffffffffffffff169050600760008273ffffffffffffffffffffffffffffffffffffffff1673ffffffffffffffffffffffffffffffffffffffff16815260200190815260200160002060000160149054906101000a900460ff16610874576040517f08c379a000000000000000000000000000000000000000000000000000000000815260040161086b9061254d565b60405180910390fd5b600760008273ffffffffffffffffffffffffffffffffffffffff1673ffffffffffffffffffffffffffffffffffffffff16815260200190815260200160002060010154600760008373ffffffffffffffffffffffffffffffffffffffff1673ffffffffffffffffffffffffffffffffffffffff168152602001908152602001600020600201549250925050915091565b600260009054906101000a900473ffffffffffffffffffffffffffffffffffffffff1673ffffffffffffffffffffffffffffffffffffffff163373ffffffffffffffffffffffffffffffffffffffff1614610994576040517f08c379a000000000000000000000000000000000000000000000000000000000815260040161098b9061248e565b60405180910390fd5b60006008826040516109a691906124ea565b908152602001604051809103902060009054906101000a900473ffffffffffffffffffffffffffffffffffffffff169050600760008273ffffffffffffffffffffffffffffffffffffffff1673ffffffffffffffffffffffffffffffffffffffff16815260200190815260200160002060000160149054906101000a900460ff16610a66576040517f08c379a0000000000000000000000000000000000000000000000000000000008152600401610a5d9061254d565b60405180910390fd5b8073ffffffffffffffffffffffffffffffffffffffff167f385cc83095cd1e56945067b2a258a6e4b3e07a6fea5686840ec8c8710c9362218342604051610aae92919061256d565b60405180910390a242600760008373ffffffffffffffffffffffffffffffffffffffff1673ffffffffffffffffffffffffffffffffffffffff168152602001908152602001600020600201819055505050565b600260009054906101000a900473ffffffffffffffffffffffffffffffffffffffff1673ffffffffffffffffffffffffffffffffffffffff163373ffffffffffffffffffffffffffffffffffffffff1614610b91576040517f08c379a0000000000000000000000000000000000000000000000000000000008152600401610b889061248e565b60405180910390fd5b600760008473ffffffffffffffffffffffffffffffffffffffff1673ffffffffffffffffffffffffffffffffffffffff16815260200190815260200160002060000160149054906101000a900460ff16610c20576040517f08c379a0000000000000000000000000000000000000000000000000000000008152600401610c179061254d565b60405180910390fd5b600073ffffffffffffffffffffffffffffffffffffffff16600882604051610c4891906124ea565b908152602001604051809103902060009054906101000a900473ffffffffffffffffffffffffffffffffffffffff1673ffffffffffffffffffffffffffffffffffffffff1614610ccd576040517f08c379a0000000000000000000000000000000000000000000000000000000008152600401610cc4906126a1565b60405180910390fd5b600760008473ffffffffffffffffffffffffffffffffffffffff1673ffffffffffffffffffffffffffffffffffffffff168152602001908152602001600020600760008473ffffffffffffffffffffffffffffffffffffffff1673ffffffffffffffffffffffffffffffffffffffff1681526020019081526020016000206000820160009054906101000a900473ffffffffffffffffffffffffffffffffffffffff168160000160006101000a81548173ffffffffffffffffffffffffffffffffffffffff021916908373ffffffffffffffffffffffffffffffffffffffff1602179055506000820160149054906101000a900460ff168160000160146101000a81548160ff02191690831515021790555060018201548160010155600282015481600201556003820160009054906101000a900460ff168160030160006101000a81548160ff02191690831515021790555060048201816004019081610e349190612883565b5090505081600760008473ffffffffffffffffffffffffffffffffffffffff1673ffffffffffffffffffffffffffffffffffffffff16815260200190815260200160002060000160006101000a81548173ffffffffffffffffffffffffffffffffffffffff021916908373ffffffffffffffffffffffffffffffffffffffff16021790555080600760008473ffffffffffffffffffffffffffffffffffffffff1673ffffffffffffffffffffffffffffffffffffffff1681526020019081526020016000206004019081610f08919061296b565b5081600882604051610f1a91906124ea565b908152602001604051809103902060006101000a81548173ffffffffffffffffffffffffffffffffffffffff021916908373ffffffffffffffffffffffffffffffffffffffff1602179055508173ffffffffffffffffffffffffffffffffffffffff167fb85f0e667348bb57871774bfd0417c75c77e9d3c2097c1b8b7084c450484bd938242604051610fae92919061256d565b60405180910390a2600760008473ffffffffffffffffffffffffffffffffffffffff1673ffffffffffffffffffffffffffffffffffffffff168152602001908152602001600020600080820160006101000a81549073ffffffffffffffffffffffffffffffffffffffff02191690556000820160146101000a81549060ff0219169055600182016000905560028201600090556003820160006101000a81549060ff02191690556004820160006110659190611edd565b5050505050565b600260009054906101000a900473ffffffffffffffffffffffffffffffffffffffff1673ffffffffffffffffffffffffffffffffffffffff163373ffffffffffffffffffffffffffffffffffffffff16146110fc576040517f08c379a00000000000000000000000000000000000000000000000000000000081526004016110f39061248e565b60405180910390fd5b600060088260405161110e91906124ea565b908152602001604051809103902060009054906101000a900473ffffffffffffffffffffffffffffffffffffffff169050600760008273ffffffffffffffffffffffffffffffffffffffff1673ffffffffffffffffffffffffffffffffffffffff16815260200190815260200160002060000160149054906101000a900460ff166111ce576040517f08c379a00000000000000000000000000000000000000000000000000000000081526004016111c59061254d565b60405180910390fd5b8073ffffffffffffffffffffffffffffffffffffffff167f401702424ce4db602e8341f3bc21347502de129f6d0f7c90d309fc46b7965de1834260405161121692919061256d565b60405180910390a26001600760008373ffffffffffffffffffffffffffffffffffffffff1673ffffffffffffffffffffffffffffffffffffffff16815260200190815260200160002060030160006101000a81548160ff0219169083151502179055505050565b60008054906101000a900473ffffffffffffffffffffffffffffffffffffffff1681565b60008060006008846040516112b691906124ea565b908152602001604051809103902060009054906101000a900473ffffffffffffffffffffffffffffffffffffffff169050600760008273ffffffffffffffffffffffffffffffffffffffff1673ffffffffffffffffffffffffffffffffffffffff16815260200190815260200160002060000160149054906101000a900460ff16611376576040517f08c379a000000000000000000000000000000000000000000000000000000000815260040161136d9061254d565b60405180910390fd5b600760008273ffffffffffffffffffffffffffffffffffffffff1673ffffffffffffffffffffffffffffffffffffffff16815260200190815260200160002060010154600760008373ffffffffffffffffffffffffffffffffffffffff1673ffffffffffffffffffffffffffffffffffffffff168152602001908152602001600020600201549250925050915091565b600160009054906101000a900473ffffffffffffffffffffffffffffffffffffffff1681565b6008818051602081018201805184825260208301602085012081835280955050505050506000915054906101000a900473ffffffffffffffffffffffffffffffffffffffff1681565b600360009054906101000a900473ffffffffffffffffffffffffffffffffffffffff1673ffffffffffffffffffffffffffffffffffffffff163373ffffffffffffffffffffffffffffffffffffffff1614611505576040517f08c379a00000000000000000000000000000000000000000000000000000000081526004016114fc90612aaf565b60405180910390fd5b600060088260405161151791906124ea565b908152602001604051809103902060009054906101000a900473ffffffffffffffffffffffffffffffffffffffff169050600760008273ffffffffffffffffffffffffffffffffffffffff1673ffffffffffffffffffffffffffffffffffffffff16815260200190815260200160002060000160149054906101000a900460ff166115d7576040517f08c379a00000000000000000000000000000000000000000000000000000000081526004016115ce9061254d565b60405180910390fd5b8073ffffffffffffffffffffffffffffffffffffffff167f6f0f47a926593f8d87dbe48ebca9e357c087658635f41ed497ec44d6785ea7ac834260405161161f92919061256d565b60405180910390a242600760008373ffffffffffffffffffffffffffffffffffffffff1673ffffffffffffffffffffffffffffffffffffffff168152602001908152602001600020600201819055505050565b60008054906101000a900473ffffffffffffffffffffffffffffffffffffffff1673ffffffffffffffffffffffffffffffffffffffff163373ffffffffffffffffffffffffffffffffffffffff1614611700576040517f08c379a00000000000000000000000000000000000000000000000000000000081526004016116f790612b41565b60405180910390fd5b600073ffffffffffffffffffffffffffffffffffffffff1660088260405161172891906124ea565b908152602001604051809103902060009054906101000a900473ffffffffffffffffffffffffffffffffffffffff1673ffffffffffffffffffffffffffffffffffffffff16146117ad576040517f08c379a00000000000000000000000000000000000000000000000000000000081526004016117a4906126a1565b60405180910390fd5b6040518060c001604052808373ffffffffffffffffffffffffffffffffffffffff168152602001600115158152602001600081526020016000815260200160001515815260200182815250600760008473ffffffffffffffffffffffffffffffffffffffff1673ffffffffffffffffffffffffffffffffffffffff16815260200190815260200160002060008201518160000160006101000a81548173ffffffffffffffffffffffffffffffffffffffff021916908373ffffffffffffffffffffffffffffffffffffffff16021790555060208201518160000160146101000a81548160ff021916908315150217905550604082015181600101556060820151816002015560808201518160030160006101000a81548160ff02191690831515021790555060a08201518160040190816118e7919061296b565b50905050816008826040516118fc91906124ea565b908152602001604051809103902060006101000a81548173ffffffffffffffffffffffffffffffffffffffff021916908373ffffffffffffffffffffffffffffffffffffffff1602179055508173ffffffffffffffffffffffffffffffffffffffff167fb85f0e667348bb57871774bfd0417c75c77e9d3c2097c1b8b7084c450484bd93824260405161199092919061256d565b60405180910390a25050565b600460009054906101000a900473ffffffffffffffffffffffffffffffffffffffff1673ffffffffffffffffffffffffffffffffffffffff163373ffffffffffffffffffffffffffffffffffffffff1614611a2c576040517f08c379a0000000000000000000000000000000000000000000000000000000008152600401611a2390612bd3565b60405180910390fd5b6000600882604051611a3e91906124ea565b908152602001604051809103902060009054906101000a900473ffffffffffffffffffffffffffffffffffffffff169050600760008273ffffffffffffffffffffffffffffffffffffffff1673ffffffffffffffffffffffffffffffffffffffff16815260200190815260200160002060000160149054906101000a900460ff16611afe576040517f08c379a0000000000000000000000000000000000000000000000000000000008152600401611af59061254d565b60405180910390fd5b5050565b600360009054906101000a900473ffffffffffffffffffffffffffffffffffffffff1681565b600660009054906101000a900473ffffffffffffffffffffffffffffffffffffffff1681565b600460009054906101000a900473ffffffffffffffffffffffffffffffffffffffff1681565b600560009054906101000a900473ffffffffffffffffffffffffffffffffffffffff1681565b6000600160009054906101000a900473ffffffffffffffffffffffffffffffffffffffff1673ffffffffffffffffffffffffffffffffffffffff163373ffffffffffffffffffffffffffffffffffffffff1614611c2c576040517f08c379a0000000000000000000000000000000000000000000000000000000008152600401611c2390612c65565b60405180910390fd5b6000600883604051611c3e91906124ea565b908152602001604051809103902060009054906101000a900473ffffffffffffffffffffffffffffffffffffffff169050600760008273ffffffffffffffffffffffffffffffffffffffff1673ffffffffffffffffffffffffffffffffffffffff16815260200190815260200160002060000160149054906101000a900460ff16611cfe576040517f08c379a0000000000000000000000000000000000000000000000000000000008152600401611cf59061254d565b60405180910390fd5b600760008273ffffffffffffffffffffffffffffffffffffffff1673ffffffffffffffffffffffffffffffffffffffff16815260200190815260200160002060030160009054906101000a900460ff1615915050919050565b6000600560009054906101000a900473ffffffffffffffffffffffffffffffffffffffff1673ffffffffffffffffffffffffffffffffffffffff163373ffffffffffffffffffffffffffffffffffffffff1614611de9576040517f08c379a0000000000000000000000000000000000000000000000000000000008152600401611de090612cf7565b60405180910390fd5b6000600883604051611dfb91906124ea565b908152602001604051809103902060009054906101000a900473ffffffffffffffffffffffffffffffffffffffff169050600760008273ffffffffffffffffffffffffffffffffffffffff1673ffffffffffffffffffffffffffffffffffffffff16815260200190815260200160002060000160149054906101000a900460ff168015611ed55750600760008273ffffffffffffffffffffffffffffffffffffffff1673ffffffffffffffffffffffffffffffffffffffff16815260200190815260200160002060030160009054906101000a900460ff16155b915050919050565b508054611ee9906123eb565b6000825580601f10611efb5750611f1a565b601f016020900490600052602060002090810190611f199190611f1d565b5b50565b5b80821115611f36576000816000905550600101611f1e565b5090565b6000604051905090565b600080fd5b600080fd5b600073ffffffffffffffffffffffffffffffffffffffff82169050919050565b6000611f7982611f4e565b9050919050565b611f8981611f6e565b8114611f9457600080fd5b50565b600081359050611fa681611f80565b92915050565b600060208284031215611fc257611fc1611f44565b5b6000611fd084828501611f97565b91505092915050565b611fe281611f6e565b82525050565b60008115159050919050565b611ffd81611fe8565b82525050565b6000819050919050565b61201681612003565b82525050565b600081519050919050565b600082825260208201905092915050565b60005b8381101561205657808201518184015260208101905061203b565b60008484015250505050565b6000601f19601f8301169050919050565b600061207e8261201c565b6120888185612027565b9350612098818560208601612038565b6120a181612062565b840191505092915050565b600060c0820190506120c16000830189611fd9565b6120ce6020830188611ff4565b6120db604083018761200d565b6120e8606083018661200d565b6120f56080830185611ff4565b81810360a08301526121078184612073565b9050979650505050505050565b600080fd5b600080fd5b7f4e487b7100000000000000000000000000000000000000000000000000000000600052604160045260246000fd5b61215682612062565b810181811067ffffffffffffffff821117156121755761217461211e565b5b80604052505050565b6000612188611f3a565b9050612194828261214d565b919050565b600067ffffffffffffffff8211156121b4576121b361211e565b5b6121bd82612062565b9050602081019050919050565b82818337600083830152505050565b60006121ec6121e784612199565b61217e565b90508281526020810184848401111561220857612207612119565b5b6122138482856121ca565b509392505050565b600082601f8301126122305761222f612114565b5b81356122408482602086016121d9565b91505092915050565b60006020828403121561225f5761225e611f44565b5b600082013567ffffffffffffffff81111561227d5761227c611f49565b5b6122898482850161221b565b91505092915050565b60006020820190506122a76000830184611fd9565b92915050565b60006040820190506122c2600083018561200d565b6122cf602083018461200d565b9392505050565b6000806000606084860312156122ef576122ee611f44565b5b60006122fd86828701611f97565b935050602061230e86828701611f97565b925050604084013567ffffffffffffffff81111561232f5761232e611f49565b5b61233b8682870161221b565b9150509250925092565b6000806040838503121561235c5761235b611f44565b5b600061236a85828601611f97565b925050602083013567ffffffffffffffff81111561238b5761238a611f49565b5b6123978582860161221b565b9150509250929050565b60006020820190506123b66000830184611ff4565b92915050565b7f4e487b7100000000000000000000000000000000000000000000000000000000600052602260045260246000fd5b6000600282049050600182168061240357607f821691505b602082108103612416576124156123bc565b5b50919050565b7f4f6e6c7920636c69656e742063616e2063616c6c20746869732066756e63746960008201527f6f6e000000000000000000000000000000000000000000000000000000000000602082015250565b6000612478602283612027565b91506124838261241c565b604082019050919050565b600060208201905081810360008301526124a78161246b565b9050919050565b600081905092915050565b60006124c48261201c565b6124ce81856124ae565b93506124de818560208601612038565b80840191505092915050565b60006124f682846124b9565b915081905092915050565b7f56656869636c65206973206e6f74207265676973746572656400000000000000600082015250565b6000612537601983612027565b915061254282612501565b602082019050919050565b600060208201905081810360008301526125668161252a565b9050919050565b600060408201905081810360008301526125878185612073565b9050612596602083018461200d565b9392505050565b7f4f6e6c7920706f6c6963652063616e2063616c6c20746869732066756e63746960008201527f6f6e000000000000000000000000000000000000000000000000000000000000602082015250565b60006125f9602283612027565b91506126048261259d565b604082019050919050565b60006020820190508181036000830152612628816125ec565b9050919050565b7f4c6963656e736520706c61746520697320616c7265616479207265676973746560008201527f7265640000000000000000000000000000000000000000000000000000000000602082015250565b600061268b602383612027565b91506126968261262f565b604082019050919050565b600060208201905081810360008301526126ba8161267e565b9050919050565b6000815490506126d0816123eb565b9050919050565b60008190508160005260206000209050919050565b60006020601f8301049050919050565b600082821b905092915050565b6000600883026127397fffffffffffffffffffffffffffffffffffffffffffffffffffffffffffffffff826126fc565b61274386836126fc565b95508019841693508086168417925050509392505050565b6000819050919050565b600061278061277b61277684612003565b61275b565b612003565b9050919050565b6000819050919050565b61279a83612765565b6127ae6127a682612787565b848454612709565b825550505050565b600090565b6127c36127b6565b6127ce818484612791565b505050565b5b818110156127f2576127e76000826127bb565b6001810190506127d4565b5050565b601f82111561283757612808816126d7565b612811846126ec565b81016020851015612820578190505b61283461282c856126ec565b8301826127d3565b50505b505050565b600082821c905092915050565b600061285a6000198460080261283c565b1980831691505092915050565b60006128738383612849565b9150826002028217905092915050565b818103612891575050612969565b61289a826126c1565b67ffffffffffffffff8111156128b3576128b261211e565b5b6128bd82546123eb565b6128c88282856127f6565b6000601f8311600181146128f757600084156128e5578287015490505b6128ef8582612867565b865550612962565b601f198416612905876126d7565b9650612910866126d7565b60005b8281101561293857848901548255600182019150600185019450602081019050612913565b868310156129555784890154612951601f891682612849565b8355505b6001600288020188555050505b5050505050505b565b6129748261201c565b67ffffffffffffffff81111561298d5761298c61211e565b5b61299782546123eb565b6129a28282856127f6565b600060209050601f8311600181146129d557600084156129c3578287015190505b6129cd8582612867565b865550612a35565b601f1984166129e3866126d7565b60005b82811015612a0b578489015182556001820191506020850194506020810190506129e6565b86831015612a285784890151612a24601f891682612849565b8355505b6001600288020188555050505b505050505050565b7f4f6e6c79206d656368616e69632063616e2063616c6c20746869732066756e6360008201527f74696f6e00000000000000000000000000000000000000000000000000000000602082015250565b6000612a99602483612027565b9150612aa482612a3d565b604082019050919050565b60006020820190508181036000830152612ac881612a8c565b9050919050565b7f4f6e6c79206d616e7566616374757265722063616e2063616c6c20746869732060008201527f66756e6374696f6e000000000000000000000000000000000000000000000000602082015250565b6000612b2b602883612027565b9150612b3682612acf565b604082019050919050565b60006020820190508181036000830152612b5a81612b1e565b9050919050565b7f4f6e6c7920696e73757265722063616e2063616c6c20746869732066756e637460008201527f696f6e0000000000000000000000000000000000000000000000000000000000602082015250565b6000612bbd602383612027565b9150612bc882612b61565b604082019050919050565b60006020820190508181036000830152612bec81612bb0565b9050919050565b7f4f6e6c79206465616c65722063616e2063616c6c20746869732066756e63746960008201527f6f6e000000000000000000000000000000000000000000000000000000000000602082015250565b6000612c4f602283612027565b9150612c5a82612bf3565b604082019050919050565b60006020820190508181036000830152612c7e81612c42565b9050919050565b7f4f6e6c7920707265666563747572652063616e2063616c6c207468697320667560008201527f6e6374696f6e0000000000000000000000000000000000000000000000000000602082015250565b6000612ce1602683612027565b9150612cec82612c85565b604082019050919050565b60006020820190508181036000830152612d1081612cd4565b905091905056fea26469706673582212208bcd689acbf34c324722071c9af059627e1a6a54294f280cf153cddcbd393d4f64736f6c63430008140033",
  "linkReferences": {},
  "deployedLinkReferences": {}
}