{
  "_format": "hh-sol-artifact-1",
  "contractName": "VehicleMaintenance",
  "sourceName": "contracts/CarMaintenanceContract.sol",
  "abi": [
    {
      "inputs": [
        {
          "internalType": "address",
          "name": "_dealer",
          "type": "address"
        },
        {
          "internalType": "address",
          "name": "_client",
          "type": "address"
        },
        {
          "internalType": "address",
          "name": "_mechanic",
          "type": "address"
        },
        {
          "internalType": "address",
          "name": "_insurer",
          "type": "address"
        },
        {
          "internalType": "address",
          "name": "_prefecture",
          "type": "address"
        },
        {
          "internalType": "address",
          "name": "_police",
          "type": "address"
        }
      ],
      "stateMutability": "nonpayable",
      "type": "constructor"
    },
    {
      "anonymous": false,
      "inputs": [
        {
          "indexed": true,
          "internalType": "address",
          "name": "owner",
          "type": "address"
        },
        {
          "indexed": false,
          "internalType": "string",
          "name": "licensePlate",
          "type": "string"
        },
        {
          "indexed": false,
          "internalType": "uint256",
          "name": "timestamp",
          "type": "uint256"
        }
      ],
      "name": "IssueReported",
      "type": "event"
    },
    {
      "anonymous": false,
      "inputs": [
        {
          "indexed": true,
          "internalType": "address",
          "name": "owner",
          "type": "address"
        },
        {
          "indexed": false,
          "internalType": "string",
          "name": "licensePlate",
          "type": "string"
        },
        {
          "indexed": false,
          "internalType": "uint256",
          "name": "timestamp",
          "type": "uint256"
        }
      ],
      "name": "PreventiveMaintenanceRequested",
      "type": "event"
    },
    {
      "anonymous": false,
      "inputs": [
        {
          "indexed": true,
          "internalType": "address",
          "name": "owner",
          "type": "address"
        },
        {
          "indexed": false,
          "internalType": "string",
          "name": "licensePlate",
          "type": "string"
        },
        {
          "indexed": false,
          "internalType": "uint256",
          "name": "timestamp",
          "type": "uint256"
        }
      ],
      "name": "RepairValidated",
      "type": "event"
    },
    {
      "anonymous": false,
      "inputs": [
        {
          "indexed": true,
          "internalType": "address",
          "name": "owner",
          "type": "address"
        },
        {
          "indexed": false,
          "internalType": "string",
          "name": "licensePlate",
          "type": "string"
        },
        {
          "indexed": false,
          "internalType": "uint256",
          "name": "timestamp",
          "type": "uint256"
        }
      ],
      "name": "VehicleDisposed",
      "type": "event"
    },
    {
      "anonymous": false,
      "inputs": [
        {
          "indexed": true,
          "internalType": "address",
          "name": "owner",
          "type": "address"
        },
        {
          "indexed": false,
          "internalType": "bool",
          "name": "isRegistered",
          "type": "bool"
        },
        {
          "indexed": false,
          "internalType": "uint256",
          "name": "lastServiceTimestamp",
          "type": "uint256"
        },
        {
          "indexed": false,
          "internalType": "uint256",
          "name": "lastRepairTimestamp",
          "type": "uint256"
        },
        {
          "indexed": false,
          "internalType": "bool",
          "name": "isDisposed",
          "type": "bool"
        },
        {
          "indexed": false,
          "internalType": "string",
          "name": "licensePlate",
          "type": "string"
        }
      ],
      "name": "VehicleInformationRequested",
      "type": "event"
    },
    {
      "anonymous": false,
      "inputs": [
        {
          "indexed": true,
          "internalType": "address",
          "name": "owner",
          "type": "address"
        },
        {
          "indexed": false,
          "internalType": "string",
          "name": "licensePlate",
          "type": "string"
        },
        {
          "indexed": false,
          "internalType": "uint256",
          "name": "timestamp",
          "type": "uint256"
        }
      ],
      "name": "VehicleRegistered",
      "type": "event"
    },
    {
      "inputs": [
        {
          "internalType": "string",
          "name": "_licensePlate",
          "type": "string"
        }
      ],
      "name": "accessDataForInsurance",
      "outputs": [],
      "stateMutability": "nonpayable",
      "type": "function"
    },
    {
      "inputs": [
        {
          "internalType": "string",
          "name": "_licensePlate",
          "type": "string"
        }
      ],
      "name": "accessDataForPoliceInvestigation",
      "outputs": [
        {
          "internalType": "address",
          "name": "",
          "type": "address"
        },
        {
          "internalType": "bool",
          "name": "",
          "type": "bool"
        },
        {
          "internalType": "uint256",
          "name": "",
          "type": "uint256"
        },
        {
          "internalType": "uint256",
          "name": "",
          "type": "uint256"
        },
        {
          "internalType": "bool",
          "name": "",
          "type": "bool"
        },
        {
          "internalType": "string",
          "name": "",
          "type": "string"
        }
      ],
      "stateMutability": "view",
      "type": "function"
    },
    {
      "inputs": [
        {
          "internalType": "string",
          "name": "_licensePlate",
          "type": "string"
        }
      ],
      "name": "accessMaintenanceHistory",
      "outputs": [
        {
          "internalType": "uint256",
          "name": "",
          "type": "uint256"
        },
        {
          "internalType": "uint256",
          "name": "",
          "type": "uint256"
        }
      ],
      "stateMutability": "view",
      "type": "function"
    },
    {
      "inputs": [
        {
          "internalType": "string",
          "name": "_licensePlate",
          "type": "string"
        }
      ],
      "name": "accessVehicleOwner",
      "outputs": [
        {
          "internalType": "address",
          "name": "",
          "type": "address"
        }
      ],
      "stateMutability": "view",
      "type": "function"
    },
    {
      "inputs": [
        {
          "internalType": "string",
          "name": "_licensePlate",
          "type": "string"
        }
      ],
      "name": "assessVehicleValueForResale",
      "outputs": [
        {
          "internalType": "bool",
          "name": "",
          "type": "bool"
        }
      ],
      "stateMutability": "view",
      "type": "function"
    },
    {
      "inputs": [],
      "name": "client",
      "outputs": [
        {
          "internalType": "address",
          "name": "",
          "type": "address"
        }
      ],
      "stateMutability": "view",
      "type": "function"
    },
    {
      "inputs": [],
      "name": "dealer",
      "outputs": [
        {
          "internalType": "address",
          "name": "",
          "type": "address"
        }
      ],
      "stateMutability": "view",
      "type": "function"
    },
    {
      "inputs": [],
      "name": "insurer",
      "outputs": [
        {
          "internalType": "address",
          "name": "",
          "type": "address"
        }
      ],
      "stateMutability": "view",
      "type": "function"
    },
    {
      "inputs": [],
      "name": "manufacturer",
      "outputs": [
        {
          "internalType": "address",
          "name": "",
          "type": "address"
        }
      ],
      "stateMutability": "view",
      "type": "function"
    },
    {
      "inputs": [],
      "name": "mechanic",
      "outputs": [
        {
          "internalType": "address",
          "name": "",
          "type": "address"
        }
      ],
      "stateMutability": "view",
      "type": "function"
    },
    {
      "inputs": [
        {
          "internalType": "string",
          "name": "",
          "type": "string"
        }
      ],
      "name": "ownerByLicensePlate",
      "outputs": [
        {
          "internalType": "address",
          "name": "",
          "type": "address"
        }
      ],
      "stateMutability": "view",
      "type": "function"
    },
    {
      "inputs": [],
      "name": "police",
      "outputs": [
        {
          "internalType": "address",
          "name": "",
          "type": "address"
        }
      ],
      "stateMutability": "view",
      "type": "function"
    },
    {
      "inputs": [],
      "name": "prefecture",
      "outputs": [
        {
          "internalType": "address",
          "name": "",
          "type": "address"
        }
      ],
      "stateMutability": "view",
      "type": "function"
    },
    {
      "inputs": [
        {
          "internalType": "address",
          "name": "_vehicleOwner",
          "type": "address"
        },
        {
          "internalType": "string",
          "name": "_licensePlate",
          "type": "string"
        }
      ],
      "name": "registerVehicle",
      "outputs": [],
      "stateMutability": "nonpayable",
      "type": "function"
    },
    {
      "inputs": [
        {
          "internalType": "string",
          "name": "_licensePlate",
          "type": "string"
        }
      ],
      "name": "reportIssue",
      "outputs": [],
      "stateMutability": "nonpayable",
      "type": "function"
    },
    {
      "inputs": [
        {
          "internalType": "string",
          "name": "_licensePlate",
          "type": "string"
        }
      ],
      "name": "reportVehicleDisposal",
      "outputs": [],
      "stateMutability": "nonpayable",
      "type": "function"
    },
    {
      "inputs": [
        {
          "internalType": "string",
          "name": "_licensePlate",
          "type": "string"
        }
      ],
      "name": "requestPreventiveMaintenance",
      "outputs": [],
      "stateMutability": "nonpayable",
      "type": "function"
    },
    {
      "inputs": [
        {
          "internalType": "address",
          "name": "_oldVehicleOwner",
          "type": "address"
        },
        {
          "internalType": "address",
          "name": "_newOwner",
          "type": "address"
        },
        {
          "internalType": "string",
          "name": "_newLicensePlate",
          "type": "string"
        }
      ],
      "name": "transferVehicleOwnership",
      "outputs": [],
      "stateMutability": "nonpayable",
      "type": "function"
    },
    {
      "inputs": [
        {
          "internalType": "string",
          "name": "_licensePlate",
          "type": "string"
        }
      ],
      "name": "validateRepair",
      "outputs": [],
      "stateMutability": "nonpayable",
      "type": "function"
    },
    {
      "inputs": [
        {
          "internalType": "address",
          "name": "",
          "type": "address"
        }
      ],
      "name": "vehiclesByOwner",
      "outputs": [
        {
          "internalType": "address",
          "name": "owner",
          "type": "address"
        },
        {
          "internalType": "bool",
          "name": "isRegistered",
          "type": "bool"
        },
        {
          "internalType": "uint256",
          "name": "lastServiceTimestamp",
          "type": "uint256"
        },
        {
          "internalType": "uint256",
          "name": "lastRepairTimestamp",
          "type": "uint256"
        },
        {
          "internalType": "bool",
          "name": "isDisposed",
          "type": "bool"
        },
        {
          "internalType": "string",
          "name": "licensePlate",
          "type": "string"
        }
      ],
      "stateMutability": "view",
      "type": "function"
    }
  ],
  "bytecode": "0x60806040523480156200001157600080fd5b50604051620033ae380380620033ae833981810160405281019062000037919062000273565b336000806101000a81548173ffffffffffffffffffffffffffffffffffffffff021916908373ffffffffffffffffffffffffffffffffffffffff16021790555085600160006101000a81548173ffffffffffffffffffffffffffffffffffffffff021916908373ffffffffffffffffffffffffffffffffffffffff16021790555084600260006101000a81548173ffffffffffffffffffffffffffffffffffffffff021916908373ffffffffffffffffffffffffffffffffffffffff16021790555083600360006101000a81548173ffffffffffffffffffffffffffffffffffffffff021916908373ffffffffffffffffffffffffffffffffffffffff16021790555082600460006101000a81548173ffffffffffffffffffffffffffffffffffffffff021916908373ffffffffffffffffffffffffffffffffffffffff16021790555081600560006101000a81548173ffffffffffffffffffffffffffffffffffffffff021916908373ffffffffffffffffffffffffffffffffffffffff16021790555080600660006101000a81548173ffffffffffffffffffffffffffffffffffffffff021916908373ffffffffffffffffffffffffffffffffffffffff1602179055505050505050506200030f565b600080fd5b600073ffffffffffffffffffffffffffffffffffffffff82169050919050565b60006200023b826200020e565b9050919050565b6200024d816200022e565b81146200025957600080fd5b50565b6000815190506200026d8162000242565b92915050565b60008060008060008060c0878903121562000293576200029262000209565b5b6000620002a389828a016200025c565b9650506020620002b689828a016200025c565b9550506040620002c989828a016200025c565b9450506060620002dc89828a016200025c565b9350506080620002ef89828a016200025c565b92505060a06200030289828a016200025c565b9150509295509295509295565b61308f806200031f6000396000f3fe608060405234801561001057600080fd5b506004361061012c5760003560e01c80639de2ee21116100ad578063c549beec11610071578063c549beec1461034a578063c7330dd414610368578063dbc837c514610386578063e22e8e69146103a4578063e7b219ff146103c25761012c565b80639de2ee21146102a8578063a82472f0146102c6578063b880ff24146102f6578063b952385114610312578063bc81099f1461032e5761012c565b806331e2bbdb116100f457806331e2bbdb1461020557806333d29fc61461022157806363b5f64b1461023d57806374754282146102595780637e24261d146102775761012c565b8063035eb38e146101315780630bb77c7914610166578063109e94cf1461018257806316a794f7146101a057806320307cff146101d5575b600080fd5b61014b60048036038101906101469190612210565b6103f2565b60405161015d96959493929190612310565b60405180910390f35b610180600480360381019061017b91906124ad565b6104f0565b005b61018a6106ed565b60405161019791906124f6565b60405180910390f35b6101ba60048036038101906101b591906124ad565b610713565b6040516101cc96959493929190612310565b60405180910390f35b6101ef60048036038101906101ea91906124ad565b610a5d565b6040516101fc91906124f6565b60405180910390f35b61021f600480360381019061021a91906124ad565b610b35565b005b61023b60048036038101906102369190612511565b610d32565b005b610257600480360381019061025291906124ad565b61129d565b005b6102616114ae565b60405161026e91906124f6565b60405180910390f35b610291600480360381019061028c91906124ad565b6114d2565b60405161029f929190612580565b60405180910390f35b6102b0611637565b6040516102bd91906124f6565b60405180910390f35b6102e060048036038101906102db91906124ad565b61165d565b6040516102ed91906124f6565b60405180910390f35b610310600480360381019061030b91906124ad565b6116a6565b005b61032c600480360381019061032791906125a9565b6118a3565b005b610348600480360381019061034391906124ad565b611bcd565b005b610352611eec565b60405161035f91906124f6565b60405180910390f35b610370611f12565b60405161037d91906124f6565b60405180910390f35b61038e611f38565b60405161039b91906124f6565b60405180910390f35b6103ac611f5e565b6040516103b991906124f6565b60405180910390f35b6103dc60048036038101906103d791906124ad565b611f84565b6040516103e99190612605565b60405180910390f35b60076020528060005260406000206000915090508060000160009054906101000a900473ffffffffffffffffffffffffffffffffffffffff16908060000160149054906101000a900460ff16908060010154908060020154908060030160009054906101000a900460ff169080600401805461046d9061264f565b80601f01602080910402602001604051908101604052809291908181526020018280546104999061264f565b80156104e65780601f106104bb576101008083540402835291602001916104e6565b820191906000526020600020905b8154815290600101906020018083116104c957829003601f168201915b5050505050905086565b600260009054906101000a900473ffffffffffffffffffffffffffffffffffffffff1673ffffffffffffffffffffffffffffffffffffffff163373ffffffffffffffffffffffffffffffffffffffff1614610580576040517f08c379a0000000000000000000000000000000000000000000000000000000008152600401610577906126f2565b60405180910390fd5b6000600882604051610592919061274e565b908152602001604051809103902060009054906101000a900473ffffffffffffffffffffffffffffffffffffffff169050600760008273ffffffffffffffffffffffffffffffffffffffff1673ffffffffffffffffffffffffffffffffffffffff16815260200190815260200160002060000160149054906101000a900460ff16610652576040517f08c379a0000000000000000000000000000000000000000000000000000000008152600401610649906127b1565b60405180910390fd5b8073ffffffffffffffffffffffffffffffffffffffff167fe4584c74bcc8ffff59184dce78bdf58cc10866564383869b32ec225373c98069834260405161069a9291906127d1565b60405180910390a242600760008373ffffffffffffffffffffffffffffffffffffffff1673ffffffffffffffffffffffffffffffffffffffff168152602001908152602001600020600101819055505050565b600260009054906101000a900473ffffffffffffffffffffffffffffffffffffffff1681565b60008060008060006060600660009054906101000a900473ffffffffffffffffffffffffffffffffffffffff1673ffffffffffffffffffffffffffffffffffffffff163373ffffffffffffffffffffffffffffffffffffffff16146107ad576040517f08c379a00000000000000000000000000000000000000000000000000000000081526004016107a490612873565b60405180910390fd5b60006008886040516107bf919061274e565b908152602001604051809103902060009054906101000a900473ffffffffffffffffffffffffffffffffffffffff169050600760008273ffffffffffffffffffffffffffffffffffffffff1673ffffffffffffffffffffffffffffffffffffffff16815260200190815260200160002060000160009054906101000a900473ffffffffffffffffffffffffffffffffffffffff16600760008373ffffffffffffffffffffffffffffffffffffffff1673ffffffffffffffffffffffffffffffffffffffff16815260200190815260200160002060000160149054906101000a900460ff16600760008473ffffffffffffffffffffffffffffffffffffffff1673ffffffffffffffffffffffffffffffffffffffff16815260200190815260200160002060010154600760008573ffffffffffffffffffffffffffffffffffffffff1673ffffffffffffffffffffffffffffffffffffffff16815260200190815260200160002060020154600760008673ffffffffffffffffffffffffffffffffffffffff1673ffffffffffffffffffffffffffffffffffffffff16815260200190815260200160002060030160009054906101000a900460ff16600760008773ffffffffffffffffffffffffffffffffffffffff1673ffffffffffffffffffffffffffffffffffffffff1681526020019081526020016000206004018080546109c79061264f565b80601f01602080910402602001604051908101604052809291908181526020018280546109f39061264f565b8015610a405780601f10610a1557610100808354040283529160200191610a40565b820191906000526020600020905b815481529060010190602001808311610a2357829003601f168201915b505050505090509650965096509650965096505091939550919395565b6000600560009054906101000a900473ffffffffffffffffffffffffffffffffffffffff1673ffffffffffffffffffffffffffffffffffffffff163373ffffffffffffffffffffffffffffffffffffffff1614610aef576040517f08c379a0000000000000000000000000000000000000000000000000000000008152600401610ae690612905565b60405180910390fd5b600882604051610aff919061274e565b908152602001604051809103902060009054906101000a900473ffffffffffffffffffffffffffffffffffffffff169050919050565b600260009054906101000a900473ffffffffffffffffffffffffffffffffffffffff1673ffffffffffffffffffffffffffffffffffffffff163373ffffffffffffffffffffffffffffffffffffffff1614610bc5576040517f08c379a0000000000000000000000000000000000000000000000000000000008152600401610bbc906126f2565b60405180910390fd5b6000600882604051610bd7919061274e565b908152602001604051809103902060009054906101000a900473ffffffffffffffffffffffffffffffffffffffff169050600760008273ffffffffffffffffffffffffffffffffffffffff1673ffffffffffffffffffffffffffffffffffffffff16815260200190815260200160002060000160149054906101000a900460ff16610c97576040517f08c379a0000000000000000000000000000000000000000000000000000000008152600401610c8e906127b1565b60405180910390fd5b8073ffffffffffffffffffffffffffffffffffffffff167f385cc83095cd1e56945067b2a258a6e4b3e07a6fea5686840ec8c8710c9362218342604051610cdf9291906127d1565b60405180910390a242600760008373ffffffffffffffffffffffffffffffffffffffff1673ffffffffffffffffffffffffffffffffffffffff168152602001908152602001600020600201819055505050565b600260009054906101000a900473ffffffffffffffffffffffffffffffffffffffff1673ffffffffffffffffffffffffffffffffffffffff163373ffffffffffffffffffffffffffffffffffffffff1614610dc2576040517f08c379a0000000000000000000000000000000000000000000000000000000008152600401610db9906126f2565b60405180910390fd5b600760008473ffffffffffffffffffffffffffffffffffffffff1673ffffffffffffffffffffffffffffffffffffffff16815260200190815260200160002060000160149054906101000a900460ff16610e51576040517f08c379a0000000000000000000000000000000000000000000000000000000008152600401610e48906127b1565b60405180910390fd5b600073ffffffffffffffffffffffffffffffffffffffff16600882604051610e79919061274e565b908152602001604051809103902060009054906101000a900473ffffffffffffffffffffffffffffffffffffffff1673ffffffffffffffffffffffffffffffffffffffff1614610efe576040517f08c379a0000000000000000000000000000000000000000000000000000000008152600401610ef590612997565b60405180910390fd5b600760008473ffffffffffffffffffffffffffffffffffffffff1673ffffffffffffffffffffffffffffffffffffffff168152602001908152602001600020600760008473ffffffffffffffffffffffffffffffffffffffff1673ffffffffffffffffffffffffffffffffffffffff1681526020019081526020016000206000820160009054906101000a900473ffffffffffffffffffffffffffffffffffffffff168160000160006101000a81548173ffffffffffffffffffffffffffffffffffffffff021916908373ffffffffffffffffffffffffffffffffffffffff1602179055506000820160149054906101000a900460ff168160000160146101000a81548160ff02191690831515021790555060018201548160010155600282015481600201556003820160009054906101000a900460ff168160030160006101000a81548160ff021916908315150217905550600482018160040190816110659190612b79565b5090505081600760008473ffffffffffffffffffffffffffffffffffffffff1673ffffffffffffffffffffffffffffffffffffffff16815260200190815260200160002060000160006101000a81548173ffffffffffffffffffffffffffffffffffffffff021916908373ffffffffffffffffffffffffffffffffffffffff16021790555080600760008473ffffffffffffffffffffffffffffffffffffffff1673ffffffffffffffffffffffffffffffffffffffff16815260200190815260200160002060040190816111399190612c61565b508160088260405161114b919061274e565b908152602001604051809103902060006101000a81548173ffffffffffffffffffffffffffffffffffffffff021916908373ffffffffffffffffffffffffffffffffffffffff1602179055508173ffffffffffffffffffffffffffffffffffffffff167fb85f0e667348bb57871774bfd0417c75c77e9d3c2097c1b8b7084c450484bd9382426040516111df9291906127d1565b60405180910390a2600760008473ffffffffffffffffffffffffffffffffffffffff1673ffffffffffffffffffffffffffffffffffffffff168152602001908152602001600020600080820160006101000a81549073ffffffffffffffffffffffffffffffffffffffff02191690556000820160146101000a81549060ff0219169055600182016000905560028201600090556003820160006101000a81549060ff02191690556004820160006112969190612141565b5050505050565b600260009054906101000a900473ffffffffffffffffffffffffffffffffffffffff1673ffffffffffffffffffffffffffffffffffffffff163373ffffffffffffffffffffffffffffffffffffffff161461132d576040517f08c379a0000000000000000000000000000000000000000000000000000000008152600401611324906126f2565b60405180910390fd5b600060088260405161133f919061274e565b908152602001604051809103902060009054906101000a900473ffffffffffffffffffffffffffffffffffffffff169050600760008273ffffffffffffffffffffffffffffffffffffffff1673ffffffffffffffffffffffffffffffffffffffff16815260200190815260200160002060000160149054906101000a900460ff166113ff576040517f08c379a00000000000000000000000000000000000000000000000000000000081526004016113f6906127b1565b60405180910390fd5b8073ffffffffffffffffffffffffffffffffffffffff167f401702424ce4db602e8341f3bc21347502de129f6d0f7c90d309fc46b7965de183426040516114479291906127d1565b60405180910390a26001600760008373ffffffffffffffffffffffffffffffffffffffff1673ffffffffffffffffffffffffffffffffffffffff16815260200190815260200160002060030160006101000a81548160ff0219169083151502179055505050565b60008054906101000a900473ffffffffffffffffffffffffffffffffffffffff1681565b60008060006008846040516114e7919061274e565b908152602001604051809103902060009054906101000a900473ffffffffffffffffffffffffffffffffffffffff169050600760008273ffffffffffffffffffffffffffffffffffffffff1673ffffffffffffffffffffffffffffffffffffffff16815260200190815260200160002060000160149054906101000a900460ff166115a7576040517f08c379a000000000000000000000000000000000000000000000000000000000815260040161159e906127b1565b60405180910390fd5b600760008273ffffffffffffffffffffffffffffffffffffffff1673ffffffffffffffffffffffffffffffffffffffff16815260200190815260200160002060010154600760008373ffffffffffffffffffffffffffffffffffffffff1673ffffffffffffffffffffffffffffffffffffffff168152602001908152602001600020600201549250925050915091565b600160009054906101000a900473ffffffffffffffffffffffffffffffffffffffff1681565b6008818051602081018201805184825260208301602085012081835280955050505050506000915054906101000a900473ffffffffffffffffffffffffffffffffffffffff1681565b600360009054906101000a900473ffffffffffffffffffffffffffffffffffffffff1673ffffffffffffffffffffffffffffffffffffffff163373ffffffffffffffffffffffffffffffffffffffff1614611736576040517f08c379a000000000000000000000000000000000000000000000000000000000815260040161172d90612da5565b60405180910390fd5b6000600882604051611748919061274e565b908152602001604051809103902060009054906101000a900473ffffffffffffffffffffffffffffffffffffffff169050600760008273ffffffffffffffffffffffffffffffffffffffff1673ffffffffffffffffffffffffffffffffffffffff16815260200190815260200160002060000160149054906101000a900460ff16611808576040517f08c379a00000000000000000000000000000000000000000000000000000000081526004016117ff906127b1565b60405180910390fd5b8073ffffffffffffffffffffffffffffffffffffffff167f6f0f47a926593f8d87dbe48ebca9e357c087658635f41ed497ec44d6785ea7ac83426040516118509291906127d1565b60405180910390a242600760008373ffffffffffffffffffffffffffffffffffffffff1673ffffffffffffffffffffffffffffffffffffffff168152602001908152602001600020600201819055505050565b60008054906101000a900473ffffffffffffffffffffffffffffffffffffffff1673ffffffffffffffffffffffffffffffffffffffff163373ffffffffffffffffffffffffffffffffffffffff1614611931576040517f08c379a000000000000000000000000000000000000000000000000000000000815260040161192890612e37565b60405180910390fd5b600073ffffffffffffffffffffffffffffffffffffffff16600882604051611959919061274e565b908152602001604051809103902060009054906101000a900473ffffffffffffffffffffffffffffffffffffffff1673ffffffffffffffffffffffffffffffffffffffff16146119de576040517f08c379a00000000000000000000000000000000000000000000000000000000081526004016119d590612997565b60405180910390fd5b6040518060c001604052808373ffffffffffffffffffffffffffffffffffffffff168152602001600115158152602001600081526020016000815260200160001515815260200182815250600760008473ffffffffffffffffffffffffffffffffffffffff1673ffffffffffffffffffffffffffffffffffffffff16815260200190815260200160002060008201518160000160006101000a81548173ffffffffffffffffffffffffffffffffffffffff021916908373ffffffffffffffffffffffffffffffffffffffff16021790555060208201518160000160146101000a81548160ff021916908315150217905550604082015181600101556060820151816002015560808201518160030160006101000a81548160ff02191690831515021790555060a0820151816004019081611b189190612c61565b5090505081600882604051611b2d919061274e565b908152602001604051809103902060006101000a81548173ffffffffffffffffffffffffffffffffffffffff021916908373ffffffffffffffffffffffffffffffffffffffff1602179055508173ffffffffffffffffffffffffffffffffffffffff167fb85f0e667348bb57871774bfd0417c75c77e9d3c2097c1b8b7084c450484bd938242604051611bc19291906127d1565b60405180910390a25050565b600460009054906101000a900473ffffffffffffffffffffffffffffffffffffffff1673ffffffffffffffffffffffffffffffffffffffff163373ffffffffffffffffffffffffffffffffffffffff1614611c5d576040517f08c379a0000000000000000000000000000000000000000000000000000000008152600401611c5490612ec9565b60405180910390fd5b6000600882604051611c6f919061274e565b908152602001604051809103902060009054906101000a900473ffffffffffffffffffffffffffffffffffffffff169050600760008273ffffffffffffffffffffffffffffffffffffffff1673ffffffffffffffffffffffffffffffffffffffff16815260200190815260200160002060000160149054906101000a900460ff16611d2f576040517f08c379a0000000000000000000000000000000000000000000000000000000008152600401611d26906127b1565b60405180910390fd5b8073ffffffffffffffffffffffffffffffffffffffff167f27036170b5ae8a242455a6d8501915ba3556207aa29530e75c71003527513352600760008473ffffffffffffffffffffffffffffffffffffffff1673ffffffffffffffffffffffffffffffffffffffff16815260200190815260200160002060000160149054906101000a900460ff16600760008573ffffffffffffffffffffffffffffffffffffffff1673ffffffffffffffffffffffffffffffffffffffff16815260200190815260200160002060010154600760008673ffffffffffffffffffffffffffffffffffffffff1673ffffffffffffffffffffffffffffffffffffffff16815260200190815260200160002060020154600760008773ffffffffffffffffffffffffffffffffffffffff1673ffffffffffffffffffffffffffffffffffffffff16815260200190815260200160002060030160009054906101000a900460ff16600760008873ffffffffffffffffffffffffffffffffffffffff1673ffffffffffffffffffffffffffffffffffffffff168152602001908152602001600020600401604051611ee0959493929190612f6d565b60405180910390a25050565b600360009054906101000a900473ffffffffffffffffffffffffffffffffffffffff1681565b600660009054906101000a900473ffffffffffffffffffffffffffffffffffffffff1681565b600460009054906101000a900473ffffffffffffffffffffffffffffffffffffffff1681565b600560009054906101000a900473ffffffffffffffffffffffffffffffffffffffff1681565b6000600160009054906101000a900473ffffffffffffffffffffffffffffffffffffffff1673ffffffffffffffffffffffffffffffffffffffff163373ffffffffffffffffffffffffffffffffffffffff1614612016576040517f08c379a000000000000000000000000000000000000000000000000000000000815260040161200d90613039565b60405180910390fd5b6000600883604051612028919061274e565b908152602001604051809103902060009054906101000a900473ffffffffffffffffffffffffffffffffffffffff169050600760008273ffffffffffffffffffffffffffffffffffffffff1673ffffffffffffffffffffffffffffffffffffffff16815260200190815260200160002060000160149054906101000a900460ff166120e8576040517f08c379a00000000000000000000000000000000000000000000000000000000081526004016120df906127b1565b60405180910390fd5b600760008273ffffffffffffffffffffffffffffffffffffffff1673ffffffffffffffffffffffffffffffffffffffff16815260200190815260200160002060030160009054906101000a900460ff1615915050919050565b50805461214d9061264f565b6000825580601f1061215f575061217e565b601f01602090049060005260206000209081019061217d9190612181565b5b50565b5b8082111561219a576000816000905550600101612182565b5090565b6000604051905090565b600080fd5b600080fd5b600073ffffffffffffffffffffffffffffffffffffffff82169050919050565b60006121dd826121b2565b9050919050565b6121ed816121d2565b81146121f857600080fd5b50565b60008135905061220a816121e4565b92915050565b600060208284031215612226576122256121a8565b5b6000612234848285016121fb565b91505092915050565b612246816121d2565b82525050565b60008115159050919050565b6122618161224c565b82525050565b6000819050919050565b61227a81612267565b82525050565b600081519050919050565b600082825260208201905092915050565b60005b838110156122ba57808201518184015260208101905061229f565b60008484015250505050565b6000601f19601f8301169050919050565b60006122e282612280565b6122ec818561228b565b93506122fc81856020860161229c565b612305816122c6565b840191505092915050565b600060c082019050612325600083018961223d565b6123326020830188612258565b61233f6040830187612271565b61234c6060830186612271565b6123596080830185612258565b81810360a083015261236b81846122d7565b9050979650505050505050565b600080fd5b600080fd5b7f4e487b7100000000000000000000000000000000000000000000000000000000600052604160045260246000fd5b6123ba826122c6565b810181811067ffffffffffffffff821117156123d9576123d8612382565b5b80604052505050565b60006123ec61219e565b90506123f882826123b1565b919050565b600067ffffffffffffffff82111561241857612417612382565b5b612421826122c6565b9050602081019050919050565b82818337600083830152505050565b600061245061244b846123fd565b6123e2565b90508281526020810184848401111561246c5761246b61237d565b5b61247784828561242e565b509392505050565b600082601f83011261249457612493612378565b5b81356124a484826020860161243d565b91505092915050565b6000602082840312156124c3576124c26121a8565b5b600082013567ffffffffffffffff8111156124e1576124e06121ad565b5b6124ed8482850161247f565b91505092915050565b600060208201905061250b600083018461223d565b92915050565b60008060006060848603121561252a576125296121a8565b5b6000612538868287016121fb565b9350506020612549868287016121fb565b925050604084013567ffffffffffffffff81111561256a576125696121ad565b5b6125768682870161247f565b9150509250925092565b60006040820190506125956000830185612271565b6125a26020830184612271565b9392505050565b600080604083850312156125c0576125bf6121a8565b5b60006125ce858286016121fb565b925050602083013567ffffffffffffffff8111156125ef576125ee6121ad565b5b6125fb8582860161247f565b9150509250929050565b600060208201905061261a6000830184612258565b92915050565b7f4e487b7100000000000000000000000000000000000000000000000000000000600052602260045260246000fd5b6000600282049050600182168061266757607f821691505b60208210810361267a57612679612620565b5b50919050565b7f4f6e6c7920636c69656e742063616e2063616c6c20746869732066756e63746960008201527f6f6e000000000000000000000000000000000000000000000000000000000000602082015250565b60006126dc60228361228b565b91506126e782612680565b604082019050919050565b6000602082019050818103600083015261270b816126cf565b9050919050565b600081905092915050565b600061272882612280565b6127328185612712565b935061274281856020860161229c565b80840191505092915050565b600061275a828461271d565b915081905092915050565b7f56656869636c65206973206e6f74207265676973746572656400000000000000600082015250565b600061279b60198361228b565b91506127a682612765565b602082019050919050565b600060208201905081810360008301526127ca8161278e565b9050919050565b600060408201905081810360008301526127eb81856122d7565b90506127fa6020830184612271565b9392505050565b7f4f6e6c7920706f6c6963652063616e2063616c6c20746869732066756e63746960008201527f6f6e000000000000000000000000000000000000000000000000000000000000602082015250565b600061285d60228361228b565b915061286882612801565b604082019050919050565b6000602082019050818103600083015261288c81612850565b9050919050565b7f4f6e6c7920707265666563747572652063616e2063616c6c207468697320667560008201527f6e6374696f6e0000000000000000000000000000000000000000000000000000602082015250565b60006128ef60268361228b565b91506128fa82612893565b604082019050919050565b6000602082019050818103600083015261291e816128e2565b9050919050565b7f4c6963656e736520706c61746520697320616c7265616479207265676973746560008201527f7265640000000000000000000000000000000000000000000000000000000000602082015250565b600061298160238361228b565b915061298c82612925565b604082019050919050565b600060208201905081810360008301526129b081612974565b9050919050565b6000815490506129c68161264f565b9050919050565b60008190508160005260206000209050919050565b60006020601f8301049050919050565b600082821b905092915050565b600060088302612a2f7fffffffffffffffffffffffffffffffffffffffffffffffffffffffffffffffff826129f2565b612a3986836129f2565b95508019841693508086168417925050509392505050565b6000819050919050565b6000612a76612a71612a6c84612267565b612a51565b612267565b9050919050565b6000819050919050565b612a9083612a5b565b612aa4612a9c82612a7d565b8484546129ff565b825550505050565b600090565b612ab9612aac565b612ac4818484612a87565b505050565b5b81811015612ae857612add600082612ab1565b600181019050612aca565b5050565b601f821115612b2d57612afe816129cd565b612b07846129e2565b81016020851015612b16578190505b612b2a612b22856129e2565b830182612ac9565b50505b505050565b600082821c905092915050565b6000612b5060001984600802612b32565b1980831691505092915050565b6000612b698383612b3f565b9150826002028217905092915050565b818103612b87575050612c5f565b612b90826129b7565b67ffffffffffffffff811115612ba957612ba8612382565b5b612bb3825461264f565b612bbe828285612aec565b6000601f831160018114612bed5760008415612bdb578287015490505b612be58582612b5d565b865550612c58565b601f198416612bfb876129cd565b9650612c06866129cd565b60005b82811015612c2e57848901548255600182019150600185019450602081019050612c09565b86831015612c4b5784890154612c47601f891682612b3f565b8355505b6001600288020188555050505b5050505050505b565b612c6a82612280565b67ffffffffffffffff811115612c8357612c82612382565b5b612c8d825461264f565b612c98828285612aec565b600060209050601f831160018114612ccb5760008415612cb9578287015190505b612cc38582612b5d565b865550612d2b565b601f198416612cd9866129cd565b60005b82811015612d0157848901518255600182019150602085019450602081019050612cdc565b86831015612d1e5784890151612d1a601f891682612b3f565b8355505b6001600288020188555050505b505050505050565b7f4f6e6c79206d656368616e69632063616e2063616c6c20746869732066756e6360008201527f74696f6e00000000000000000000000000000000000000000000000000000000602082015250565b6000612d8f60248361228b565b9150612d9a82612d33565b604082019050919050565b60006020820190508181036000830152612dbe81612d82565b9050919050565b7f4f6e6c79206d616e7566616374757265722063616e2063616c6c20746869732060008201527f66756e6374696f6e000000000000000000000000000000000000000000000000602082015250565b6000612e2160288361228b565b9150612e2c82612dc5565b604082019050919050565b60006020820190508181036000830152612e5081612e14565b9050919050565b7f4f6e6c7920696e73757265722063616e2063616c6c20746869732066756e637460008201527f696f6e0000000000000000000000000000000000000000000000000000000000602082015250565b6000612eb360238361228b565b9150612ebe82612e57565b604082019050919050565b60006020820190508181036000830152612ee281612ea6565b9050919050565b60008154612ef68161264f565b612f00818661228b565b94506001821660008114612f1b5760018114612f3157612f64565b60ff198316865281151560200286019350612f64565b612f3a856129cd565b60005b83811015612f5c57815481890152600182019150602081019050612f3d565b808801955050505b50505092915050565b600060a082019050612f826000830188612258565b612f8f6020830187612271565b612f9c6040830186612271565b612fa96060830185612258565b8181036080830152612fbb8184612ee9565b90509695505050505050565b7f4f6e6c79206465616c65722063616e2063616c6c20746869732066756e63746960008201527f6f6e000000000000000000000000000000000000000000000000000000000000602082015250565b600061302360228361228b565b915061302e82612fc7565b604082019050919050565b6000602082019050818103600083015261305281613016565b905091905056fea26469706673582212207b7f43dd25c9a3ec34b56adb5fb89821d8a3eef86f7bcadeebdcb07781e33cce64736f6c63430008140033",
  "linkReferences": {},
  "deployedLinkReferences": {}
}